:020000040000FA
:1000000030AB00202D020000350200003702000056
:10001000390200003B0200003D0200000000000029
:100020000000000000000000000000003F0200008F
:1000300041020000000000004302000045020000F1
:10004000470200004702000047020000470200008C
:10005000470200004702000047020000470200007C
:100060004702000047020000AD1B000047020000ED
:10007000CD1B000047020000ED1B000047020000FE
:10008000470200004702000047020000470200004C
:10009000470200004702000047020000470200003C
:1000A00047020000951B00004702000047020000C5
:1000B000470200004702000047020000470200001C
:1000C000470200004702000047020000470200000C
:1000D00047020000470200004702000047020000FC
:1000E00047020000000000000000000000000000C7
:1000F0000000000000000000000000000000000000
:1001000000000000000000000000000000000000EF
:1001100000000000000000000000000000000000DF
:1001200000000000000000000000000000000000CF
:1001300000000000000000000000000000000000BF
:100140000000000000F002F800F04CF80AA090E86F
:10015000000C82448344AAF10107DA4501D100F082
:1001600041F8AFF2090EBAE80F0013F0010F18BF03
:10017000FB1A43F001031847FC3200001C33000057
:100180000A4410F8014B14F00F0508BF10F8015B8A
:10019000240908BF10F8014B6D1E05D010F8013B73
:1001A0006D1E01F8013BF9D1641E03D0641E01F8F5
:1001B000015BFBD19142E4D370470000002300248F
:1001C00000250026103A28BF78C1FBD8520728BF67
:1001D00030C148BF0B6070471FB502F063FE1FBD02
:1001E00010B510BD00F043F81146FFF7F5FF02F01F
:1001F00073FD00F061F803B4FFF7F2FF03BC00F0F9
:1002000069F800000138FDD17047000072B67047F0
:1002100062B67047EFF3108072B6704780F31088B3
:10022000704730BF70470138FDD17047094880479B
:1002300009480047FEE7FEE7FEE7FEE7FEE7FEE7C8
:10024000FEE7FEE7FEE7FEE704480549034A054BE3
:1002500070470000251B00004501000030A9002068
:1002600030AB002030A900207047704770477546BA
:1002700000F02CF8AE4605006946534620F0070012
:10028000854618B020B5FFF7DFFFBDE820404FF0EE
:1002900000064FF000074FF000084FF0000B21F070
:1002A0000701AC46ACE8C009ACE8C009ACE8C0093D
:1002B000ACE8C0098D46704710B50446AFF3008026
:1002C0002046BDE81040FFF796BF00000048704789
:1002D000CCA8002001491820ABBEFEE72600020092
:1002E0007047000010B502F049FA0E201349086269
:1002F0000D2048628B2088621148007840F002008F
:100300000F490870881C007840F00200891C0870B2
:100310000B482038007840F0050009492039087062
:10032000881C007840F00500891C087003480068AC
:1003300040F002000149086010BD000000200140AB
:100340004B4C004010B5204B1B6823F002031E4CA1
:10035000236000BF1C4B1B6803F48033002BF9D1D2
:10036000194B5B6823F4F81343F40033164C6360B5
:1003700023461B6843F00203236000BF124B1B6837
:1003800003F48033002BF9D10F4B1B6843F00103BA
:100390000D4C236000BF0D4B1B6803F01003002BB6
:1003A000F9D0094BA0331B68C3F30F130380074B2D
:1003B000A03B1B68C3F30F130B80044B9C3B1B68D3
:1003C000C3F30F13138010BD0020014044210140EE
:1003D0000D48007820F002000B490870881C007856
:1003E00020F00200891C08700748801F007820F068
:1003F00002000549891F0870881C007820F002005F
:10040000891C0870704700004A4C00400148007881
:1004100070470000048809420D48007820F0200051
:100420000B490870881C007820F02000891C087097
:100430000748801F007820F020000549891F0870B8
:10044000881C007820F02000891C0870704700008C
:100450002A4C00400148007870470000148409428B
:10046000B0F5806F00DB70474FF08041098821F0C4
:1004700030014FF08042118051151180E0215181EF
:1004800018490968C1F3CF21174A1180114609881C
:100490004143C1F38F214FF08042518312490988B3
:1004A000491E51821146098C21F007011184114621
:1004B000098841F0140111800C49097841F080014C
:1004C0000A4A1170911C097821F08001921C117068
:1004D0000649891F097841F08001044A921F117072
:1004E00000BFC0E704000020080000200B4C0040C3
:1004F000B0F5806F00DB7047044909884143C1F3C0
:100500008F214FF08042518300BFF4E708000020A4
:100510000AE051480068401C4F49086008460068DE
:100520004E49884200D370474D48406800F48070BF
:100530000028EED14A4800684FF6F071084049495A
:100540000843401C464908600846C06800F00400A3
:1005500038B10846C0684449086004204049086131
:10056000E1E70AE041480068401C4049086008464D
:1005700000683F49884200D3D5E73948006800F455
:100580007C50B0F5807FEDD10AE03A480068401C0D
:1005900038490860084600683049884200D3C2E7FD
:1005A0002F48406800F480700028EED1324800885F
:1005B00040F00C0030490880881C008820F00C00B6
:1005C000891C088046F65A102C4908602B480C30CC
:1005D000006820F4E00040F4C20040F08070274939
:1005E0000C3108600846006820F0007008600EE0DA
:1005F000022022495031086021480068401C2049EF
:100600000860084600681549884200D98BE71B48F6
:100610004830006800F002000028E9D1194800695C
:1006200020F4704040F400501649086108464069C3
:1006300020F4704040F40050486113480F490831DD
:10064000086000200D4908601048114908608010BA
:100650001049086000BF66E734000020A086010052
:100660000000014000005A694000002038000020CE
:1006700020A107003C0000202A4D0040000401405A
:10068000440000200010014055021020006CDC02E4
:10069000000000200400002010B5044604E04FF4E0
:1006A000FA50FFF7AFFD641E002CF8D110BD10B555
:1006B000034603F0F800000201F0FC0440EAC40025
:1006C00040EAE20010BD00002DE9FF4F81B0064670
:1006D0000F46DDE90EB4062000FB0460401E3B49D6
:1006E000B1F90010884214DA082000FB0470401EA3
:1006F0003749B1F9001088420BDA062000FB04608C
:10070000401E002805D4082000FB0470401E00286D
:1007100002D505B0BDE8F08F4FF0080C0CFB047C4F
:10072000ACF1010C0CF0FF034FF0060C0CFB046C59
:10073000ACF1010C0CF0FF02F9B2F0B202F020FBB8
:100740004FF001084FF0000A3BE0002000902FE03E
:100750004FF000091DE0039800EB800048441D495C
:10076000085C00EA080048B1002504E0049988B25A
:1007700002F0FCFA6D1CA542F8DB08E0002504E05D
:100780001FFA8BF002F0F2FA6D1CA542F8DB09F1BA
:100790000109B9F1050FDEDB002504E01FFA8BF03B
:1007A00002F0E4FA6D1CA542F8DB0098401C0090B2
:1007B0000098A042CCDB4FEA48604FEA10680AF18B
:1007C000010ABAF1080FC0DB00BFA2E71800002041
:1007D0001A000020AE2E00002DE9F04704460D4619
:1007E00016461F464FEA272807F0FF091748B0F9B9
:1007F0000000844204DA1648B0F90000854201DBAB
:10080000BDE8F087A019401E1049B1F900108842D8
:1008100003DB0E480088001B06B2EBB204EB060CAB
:10082000ACF1010C0CF0FF02E9B2E0B202F0A8FA60
:1008300005E0404602F012FB484602F00FFB301E76
:10084000A6F101010EB2F4D100BFD9E718000020D3
:100850001A0000202DE9F04705460C4616461F46B3
:100860004FEA272807F0FF091748B0F90000854232
:1008700004DA1648B0F90000844201DBBDE8F087D5
:10088000A019401E1149B1F90010884203DB0F483E
:100890000088001B06B204EB060CACF1010C0CF056
:1008A000FF03EAB2E1B2E8B202F06AFA05E04046BC
:1008B00002F0D4FA484602F0D1FA301EA6F1010146
:1008C0000EB2F4D100BFD9E7180000201A000020B2
:1008D0002DE9F04104460D461646002C0BDB0C4872
:1008E000B0F90000844206DA002D04DB0948B0F9B3
:1008F0000000854201DBBDE8F081EBB2E2B2E9B273
:10090000E0B202F03DFA304602F030FA00BFF2E702
:10091000180000201A0000202DE9FC4104460E4674
:100920001546984600270C2E02DD0020BDE8FC810C
:1009300018E001200021CDE9001095F9002006EB18
:1009400086035B0019B204EB44035B0018B2434614
:10095000FFF7BAFE6D1C601C84B2142C01DD384612
:10096000E4E77F1C28780028E3D13846DEE7000062
:100970002DE9FC5F06460D4617469846DDE90D9BBE
:10098000DDF830A03E490F9808603E491098086095
:100990003B4800680968401A3B49086000203B4911
:1009A00008603B4805806F231A46112100200095FE
:1009B00000F070F83346652275210A20FFF70CFF1E
:1009C0003346652211210A20FFF744FF142405E075
:1009D0003246762120B2FFF77BFF0A346E2CF7DD1A
:1009E000112405E0324621B20920FFF771FF0A34D5
:1009F000752CF7DB32240CE0012128B2CDE900018F
:100A000097F9002033B2782120B2FFF75DFEA41DD4
:100A10007F1C387808B1642CEEDB99F80000B8B17F
:100A20001A240EE0012128B2CDE9000199F9002035
:100A30000FFA8BF321B20020FFF746FE083409F1CC
:100A4000010999F8000008B1322CEBDB522400E0D8
:100A50002A240EE0012128B2CDE9000198F90020F6
:100A60000FFA8AF321B20020FFF72EFE083408F1B6
:100A7000010898F8000008B1782CEBDBBDE8FC9F7A
:100A800024000020280000202C000020200000204E
:100A9000300000202DE9F04704460D4616461F465B
:100AA000DDF820804FEA282908F0FF0A2248B0F933
:100AB0000000844204DA2148B0F90000854201DBDD
:100AC000BDE8F087A019401E1B49B1F9001088420B
:100AD00003DB19480088001B06B2E819401E1749BD
:100AE000B1F90010884203DB14480088401B07B2AC
:100AF00005EB070CACF1010C0CF0FF0304EB060C4A
:100B0000ACF1010C0CF0FF02E9B2E0B202F038F9EE
:100B10003D460DE0344607E0484602F09FF9504656
:100B200002F09CF9601E04B2002CF5DC681E05B2D0
:100B3000002DEFDC00BFC3E7180000201A000020E2
:100B400038B5044605480094B0F900300448B0F9BF
:100B5000002000210846FFF79DFF38BD1A00002045
:100B60001800002010B5012000F03CFF10BD00006F
:100B70007CB505460C4600201A490860284601F05D
:100B80004DFF00201849174A12688854174A1288E6
:100B900091B2174A128890B22346134AFFF7BCFE5F
:100BA000134800680F49096808441149086008465D
:100BB0000068142815D914200860012000210B4A70
:100BC000CDE90010128802EB8202520011B2084AED
:100BD000128802EB4202520010B2064B2A22FFF7A3
:100BE00073FD7CBD1C000020380100201000002097
:100BF0000C00002000F8FFFF10B50B480068401CF7
:100C00000949086008460068632801DD0020086083
:100C10000648038864221121034800880B3000B283
:100C2000FFF718FE10BD000020000020300000205B
:100C300070B504460D4614480068201A64214843E4
:100C40001249096890FBF1F4622C02DD62244FF432
:100C50007845002C02DA00244FF47845C4F1740082
:100C600001B22A460A4800880B3000B2FFF730FE76
:100C7000C4F1730001B22A46054800880B3000B267
:100C8000FFF726FE70BD0000280000202C00002089
:100C900020000020142801D80C2900D97047034AED
:100CA0001060034A116000BFF8E700000C0000204C
:100CB0001000002070B504460D48006838B90120C6
:100CC0000B490860442001F0F5FF002070BD094881
:100CD0000078012801D10020F8E7442001F0C2FF8C
:100CE000054625600020024908600120EEE700006B
:100CF000540000203884094210B501F087FF0D48E8
:100D0000007820F040000B490870881C007820F023
:100D10004000891C08700748801F007820F04000C0
:100D20000449891F0870881C007820F04000891C45
:100D3000087010BD2B4C004010B501200949086017
:100D4000442001F0B7FF00BF074800780128FBD01E
:100D5000442001F087FF0446002002490860204635
:100D600010BD0000540000203884094210B5054829
:100D7000006828B9012003490860442001F09AFF67
:100D800010BD00005400002010B501F0F7FC8A20CF
:100D90000A49C8620A48007840F00800084908700B
:100DA000881C007840F00800891C0870034800681F
:100DB00040F002000149086010BD00000020014021
:100DC0002B4C00401A49096821F00201184A1160B1
:100DD00000BF1749096801F480310029F9D114498D
:100DE000496821F4F81141F4A021114A51601146DB
:100DF000096841F00201116000BF0D49096801F462
:100E000080310029F9D10A49096841F00101084AF5
:100E1000116000BF0749096801F020010029F9D0DD
:100E2000044998390968C1F30F1101807047000027
:100E3000002001404421014010B5B0F5806F05DA73
:100E4000B1F5806F02DAB2F5806F00DB10BD3F4B69
:100E50001B8823F030033D4C238063152380E0235F
:100E6000241D23803A4B1B68C3F3CF23394C2380C6
:100E700023461B885343C3F38F23344C14342380FD
:100E8000344B1B885B1EA41E2380304B20331B88F1
:100E900023F007032D4C203423802C4B1B8843F078
:100EA00014032A4C2380E3041B8823F03003E4045A
:100EB000238063152380E023A380264B1B884B43AC
:100EC000C3F38F23A382E0232381224B1B88434358
:100ED000C3F38F2323831F4B1B885B1E6382234630
:100EE0001B8C23F00703238423461B8843F0140341
:100EF0002380194B1B7843F05003174C2370A31C1D
:100F00001B7823F05003A41C2370134B9B1F1B78EA
:100F100043F05003104CA41F23700F4B3F331B783A
:100F200043F040030C4C3F342370A31C1B7823F088
:100F30004003A41C2370084B39331B7843F0400353
:100F4000054C3934237000BF80E7000000080040E2
:100F500004000020080000200B4C004010B5B0F544
:100F6000806F05DAB1F5806F02DAB2F5806F00DBD1
:100F700010BD0B4B1B884343C3F38F234FF08044BA
:100F80002383074B1B884B43C3F38F23A382044B5C
:100F90001B885343C3F38F23024C238000BFE7E732
:100FA00008000020140800400348406AC0F1FF30E8
:100FB0000321B0FBF1F0704700C0004010B5FFF70F
:100FC00029F904464FF0FF30044908620120C86245
:100FD000C62088622046FFF721F910BD00C00040FE
:100FE00070B50246002020E0541C4443C4EBC40406
:100FF00004F00403104C2456A4F130010F4C245685
:10100000614001F00804A40001F0040504EB45046C
:1010100001F00305611981EA0304413464B2084D0B
:1010200055F82050074E7455401C0828DCDB00247E
:10103000044D2C7270BD0000140900202C340000F7
:10104000343400001E0900202DE9F0410026ED484F
:1010500000680A287DD900F083FEEBA001F010FBA8
:10106000ED480068401EED490968B1FBF0F4B4F5A5
:101070007A7F07D3A4F57A704FF47A714843B0FBB6
:10108000F1F506E0C4F57A704FF47A714843B0FB8D
:10109000F1F5322D00D20A36E1480068E1490968CD
:1010A000471AE1A001F0ECFA4FF47A7001F02CFB42
:1010B000E2A001F0E5FADB48006801F025FBE1A0C1
:1010C00001F0DEFAD648006801F01EFBDFA001F057
:1010D000D7FA384601F0F6FADFA001F0D1FA20463F
:1010E00001F012FBDEA001F0CBFA284601F02EFB46
:1010F000DF480068401EDF490968B1FBF0F4DE48B4
:10110000844207D3201A4FF47A714843DA49B0FB7E
:10111000F1F507E0D848001B4FF47A714843D649EF
:10112000B0FBF1F5322D00D20A36D4480068D4491C
:101130000968471AD3A001F0A3FACF4801F0E4FAF6
:10114000BEA001F09DFACE48006801F0DDFABDA016
:1011500000E050E101F094FAC848006801F0D4FAC8
:10116000BAA001F08DFA384601F0ACFABAA001F04D
:1011700087FA204601F0C8FAB9A001F081FA2846A2
:1011800001F0E4FAC4480068401EC4490968B1FB94
:10119000F0F4C348844207D3201A4FF47A714843CD
:1011A000BF49B0FBF1F507E0BD48001B4FF47A7171
:1011B0004843BB49B0FBF1F5322D00D20A36B9489D
:1011C0000068B9490968471AB8A001F059FAB4484B
:1011D00001F09AFA99A001F053FAB348006801F0BF
:1011E00093FA98A001F04CFAAE48006801F08CFA2E
:1011F00096A001F045FA384601F064FA96A001F095
:101200003FFA204601F080FA95A001F039FA28460D
:1012100001F09CFAAA480068401EAA490968B1FB7F
:10122000F0F49548844207D3201A4FF47A7148436A
:101230009149B0FBF1F507E08F48001B4FF47A713C
:1012400048438D49B0FBF1F5322D00D20A369E4855
:1012500000689E490968471A9DA001F011FA864866
:1012600001F052FA75A001F00BFA9848006801F0FD
:101270004BFA74A001F004FA9348006801F044FAB4
:1012800072A001F0FDF9384601F01CFA72A001F0DD
:10129000F7F9204601F038FA71A001F0F1F928467B
:1012A00001F054FA8F480068401E8F490968B1FB6D
:1012B000F0F47148844207D3201A4FF47A714843FE
:1012C0006D49B0FBF1F507E06B48001B4FF47A71F4
:1012D00048436949B0FBF1F5322D00D20A36834804
:1012E000006883490968471A82A001F0C9F9624879
:1012F00001F00AFA51A001F0C3F97D48006801F03D
:1013000003FA50A001F0BCF97848006801F0FCF93C
:101310004EA001F0B5F9384601F0D4F94EA001F025
:10132000AFF9204601F0F0F94DA001F0A9F92846E7
:1013300001F00CFA74480068401E74490968B1FB5A
:10134000F0F45748844207D3201A4FF47A71484387
:101350005349B0FBF1F507E05148001B4FF47A7197
:1013600048434F49B0FBF1F5322D00D20A366848A8
:10137000006868490968471A67A001F081F9484880
:1013800001F0C2F92DA001F07BF96248006801F07C
:10139000BBF92CA001F074F95D48006801F0B4F9C4
:1013A0002AA001F06DF9384601F08CF92AA001F06D
:1013B00067F9204601F0A8F929A001F061F9284653
:1013C00001F0C4F93C2E00D3642658A001F058F96E
:1013D000304601F061F9584831460268012000F0BA
:1013E0003BFB56A001F04CF9584801F049F958A0D0
:1013F00001F046F904E003480068401C0149086018
:10140000BDE8F081340100200A0D2A2A446F6E6580
:101410002A2A0A0D00000000AC000020C4000020B1
:10142000DC000020F40000200A0D5461736B303A98
:101430002045787065637465643D00002C206D69FB
:101440006E3D00002C206D61783D00002C206A6903
:10145000747465723D0000002C206176653D0000CB
:1014600020757365632C206572726F723D000000F9
:10147000B0000020C8000020A0860100E00000208D
:10148000F80000200A0D5461736B313A20457870E2
:1014900065637465643D0000B4000020CC0000204A
:1014A00040420F00E4000020FC0000200A0D5461BF
:1014B000736B323A2045787065637465643D000053
:1014C000B8000020D0000020E8000020000100202B
:1014D0000A0D5461736B333A204578706563746507
:1014E000643D0000BC000020D4000020EC0000207F
:1014F000040100200A0D5461736B343A2045787062
:1015000065637465643D0000C0000020D8000020C1
:10151000F0000020080100200A0D5461736B353A79
:101520002045787065637465643D00000A0D47725C
:101530006164653D20000000A80000200A0D65647C
:101540005820636F64653D20000000001E090020E4
:101550000A0D000070B5044600BF2C48008800F05A
:1015600010000028F9D129480838008840F001000F
:1015700026490839088002202449891C088023480C
:101580000838008820F001002049083908801F49E8
:1015900018310C801D480838008820F0140040F0F5
:1015A00002001A49083908800AE0184824300088E7
:1015B00000F0300020B101F029FB4FF6FF7070BD44
:1015C00012482430008800F001000028EDD00F48B8
:1015D000001D0088C5B20AE00C482430008800F0E5
:1015E000300020B101F012FB4FF6FF70E7E707482B
:1015F0002430008800F001000028EDD00348001DD1
:101600000088C6B206EB052080B2D8E70824004067
:1016100070B506460C4600BF2448008800F0100054
:101620000028F9D121480838008840F001001F49FE
:101630000839088001201D49891C08801B4808388A
:10164000008820F00100194908390880174918312D
:101650000E8016480838008820F0040040F0120080
:1016600012490839088000BF10480838008800F087
:1016700002000028F8D1E0B20C49891D08800CE076
:101680000A482430008800F0300030B10748243088
:10169000058801F0BBFA284670BD0448008800F0B8
:1016A00010000028ECD100BFF6E70000082400403D
:1016B0002DE9F04105460E4690461F4600BF3E48C4
:1016C000008800F010000028F9D13B480838008855
:1016D00040F0010038490839088003203649891C48
:1016E000088035480838008820F001003249083960
:1016F0000880314918310D802F480838008820F0C3
:10170000040040F012002C490839088000BF2A4824
:101710002430008800F002000028F8D0F0B22649FA
:10172000891D08800CE024482430008800F0300037
:1017300030B12248848D01F069FA2046BDE8F0817D
:101740001D482430008800F002000028EBD008F08B
:10175000FF001949891D08800CE0174824300088D3
:1017600000F0300030B114482430048801F04EFA03
:101770002046E3E710482430008800F002000028EB
:10178000EBD0F8B20C49891D08800CE00A482430DF
:10179000008800F0300030B107482430048801F0A0
:1017A00035FA2046CAE70448008800F010000028F7
:1017B000ECD100BFC2E70000082400400020004038
:1017C000024890F900000249C8817047A400002037
:1017D000001000402DE9F04106460C4615461CB1AC
:1017E00042F21070844201D9BDE8F081062D00DD7F
:1017F0000625FEF70FFD07461948066019480088C0
:1018000020F03000174908808815088015482030DE
:10181000008820F00700134920310880102011496A
:10182000891C0880C002B0FBF4F0401E0D49123143
:1018300008800D48006820F47F0040EA45500A49BE
:1018400008604FF48040094908600648008840F06D
:101850001400044908803846FEF7E0FC00BFC3E7E7
:1018600024010020000C00400CE400E000E100E056
:101870000448008820F00100024908800814024949
:1018800008607047020C004080E100E05448007896
:1018900020F0080052490870881C007820F00800E9
:1018A000891C08704E48801F007840F008004C49A1
:1018B000891F0870881C007820F00800891C0870B7
:1018C000081F007820F00800091F087044481F30E6
:1018D000007820F0010042491F310870881C007810
:1018E00020F00100891C08703D481930007840F054
:1018F00001003B4919310870881C007820F0010074
:10190000891C0870081F007820F00100091F08706A
:1019100033482030007820F0A00031492031087091
:10192000881C007820F0A000891C08702C481A3010
:10193000007840F0A0002A491A310870881C00780D
:1019400020F0A000891C0870081F007820F0A0007B
:10195000091F087022483F30007820F030002049ED
:101960003F310870881C007820F03000891C087016
:101970001B483930007840F030001949393108707F
:10198000881C007820F03000891C0870081F00783F
:1019900020F03000091F087011484030007820F016
:1019A00040000F4940310870881C007820F040004A
:1019B000891C08700A483A30007840F04000084915
:1019C0003A310870881C007820F04000891C0870AB
:1019D000081F007820F04000091F087070470000C1
:1019E0000B4C004010B50446144800F013FF012CC6
:1019F00009D1134800F0E2FE0220124908700320CA
:101A00001149087002E0114800F0D8FE104800F0BB
:101A1000D5FE032C05D1362001F0FCF9C02001F0E1
:101A20001DFA00210846FFF735F94FF6E070094925
:101A300008800020FFF784F810BD0000A9330000E3
:101A4000E43300001600002017000020F1330000EE
:101A5000FE3300001400002070B506460D46144603
:101A60000A20B6FBF0F0333040B22C4908700A204F
:101A7000B6FBF0F100FB1160303040B227494870EE
:101A8000632D05D92648406800F0070000F15C0589
:101A90000A20B5FBF0F0303040B2204988700A20AF
:101AA000B5FBF0F100FB115505F1300040B21B49C8
:101AB000C87042F20F70844200D900244FF47A704B
:101AC000B4FBF0F0303040B2144908714FF47A7032
:101AD000B4FBF0F100FB11446420B4FBF0F03030B3
:101AE00040B20E4948716420B4FBF0F100FB114490
:101AF0000A20B4FBF0F0303040B2084988710A2067
:101B0000B4FBF0F100FB114404F1300040B2034992
:101B1000C87103494868FFF763FA70BD14090020D3
:101B200000C000401548006840F470001349086088
:101B30004FF4B5401249088080201249486146F6AA
:101B40005A10114908604FF48030091D0860081DC3
:101B500000680E4908400C490831086000200A4915
:101B600008600B48006920F0300009490861084608
:101B7000406920F0300048617047000088ED00E0C7
:101B80000C480040003004E000040140FBFFF8FF77
:101B90000010014010B501200249C86002480068E9
:101BA000804710BD00C000404800002010B5054827
:101BB000008820F00100034908800348006880473E
:101BC00010BD0000020400404C00002010B5054884
:101BD000008820F00100034908800348006880471E
:101BE00010BD0000020800405000002010B505485C
:101BF000008820F0010003490880034800688047FE
:101C000010BD0000020C00402401002070B5044605
:101C10000D4629480560FFF7D1F900F0EFFC0020E0
:101C20002649086026490860264908602649086058
:101C30002649086026490860264908602649086048
:101C40002649086026490860264908602649086038
:101C5000401E264908602649086026490860264932
:101C60000860264908602649086000202549086068
:101C7000254908602549086025490860254908600C
:101C8000254908602548007840F0800040B223498B
:101C90000870012C05D1052242F210712048FFF78F
:101CA00099FD3CB91FA000F0EBFC052201212B4857
:101CB000FFF790FD70BD0000A8000020C0000020CC
:101CC000BC000020B8000020B4000020B0000020BC
:101CD000AC000020D8000020D4000020D00000205C
:101CE000CC000020C8000020C40000200801002013
:101CF0000401002000010020FC000020F80000206A
:101D0000F4000020F0000020EC000020E80000209B
:101D1000E4000020E0000020DC000020A4000020FF
:101D2000C11700000A0D2A2A5374617274204C6195
:101D3000622031204772616465722A2A5665727387
:101D4000696F6E20312E30302A2A31302D73656351
:101D50002072756E2A2A0A0D00000000491000004A
:101D600000B5FFF785FD00BD70B5FFF71DF905460D
:101D70001248006898B1124800682C1A114800688F
:101D8000844201D90F4804600F480068844201D2A0
:101D90000D4804600D48006820440C49086007485D
:101DA0000068401C0549086005480560084890F92E
:101DB000000080F001000649087070BDAC000020F2
:101DC0000C010020DC000020F4000020C4000020F2
:101DD000A400002070B5FFF7E7F805461248006838
:101DE00098B1124800682C1A11480068844201D941
:101DF0000F4804600F480068844201D20D48046017
:101E00000D48006820440C49086007480068401CE1
:101E10000549086005480560084890F9000080F011
:101E200002000649087070BDB000002010010020BB
:101E3000E0000020F8000020C8000020A4000020DE
:101E400070B5FFF7B1F805461248006898B112481E
:101E500000682C1A11480068844201D90F480460B8
:101E60000F480068844201D20D4804600D480068A4
:101E700020440C49086007480068401C0549086078
:101E800005480560084890F9000080F00400064904
:101E9000087070BDB400002014010020E400002090
:101EA000FC000020CC000020A400002070B5FFF74B
:101EB0007BF805461248006898B1124800682C1A51
:101EC00011480068844201D90F4804600F48006837
:101ED000844201D20D4804600D48006820440C493A
:101EE000086007480068401C05490860054805600F
:101EF000084890F9000080F008000649087070BD9D
:101F0000B800002018010020E80000200001002097
:101F1000D0000020A400002070B5FFF745F805466A
:101F20001248006898B1124800682C1A11480068DD
:101F3000844201D90F4804600F480068844201D2EE
:101F40000D4804600D48006820440C4908600748AB
:101F50000068401C0549086005480560084890F97C
:101F6000000080F010000649087070BDBC00002021
:101F70001C010020EC00002004010020D4000020FF
:101F8000A400002070B5FFF70FF80546124800685E
:101F900098B1124800682C1A11480068844201D98F
:101FA0000F4804600F480068844201D20D48046065
:101FB0000D48006820440C49086007480068401C30
:101FC0000549086005480560084890F9000080F060
:101FD00020000649087070BDC000002020010020CC
:101FE000F000002008010020D8000020A4000020FC
:101FF00070B5FFF7B9FE2848007880F00100264947
:1020000008702648FEF7DEFE254800682349098847
:102010000844234908602148008800B22149224A27
:10202000126821F8120020480068401C1E49086010
:1020300008460068B0F57A7F2CD100200860184867
:1020400000684FF47A7190FBF1F5002014490860A4
:1020500000240EE0134830F91400401B114931F9F7
:102060001410491B0E4A126800FB01200C4908603D
:10207000641CB4F57A7FEDDB094800684FF47A718F
:1020800090FBF1F6304600F0B5FE084908600020EC
:102090000349086070BD0000748409426C00002090
:1020A00098000020440100209C00002070000020C7
:1020B00010B5FEF769FE00200149086010BD000060
:1020C0007000002010B5FFF785FE5D48007880F0B5
:1020D00001005B4908705B4A5B495C48FEF732F9D6
:1020E0005A4909884943584A1288574B1B8802FBB2
:1020F000031254490988534B1B8801FB032000F04D
:1021000079FE5349086008460068C00151490968D2
:1021100040F27F3202FB0100800A4E4908604E48BF
:102120000078D0B94A4800684C490968884207D904
:1021300047480068494908600020494908607EE036
:1021400047480068401C4649086008460068052862
:1021500075D301204049087071E03F48007801289C
:1021600026D13B4800683D490968884209D938486A
:1021700000683A490860002039490860364908700B
:102180005DE034480068193831490968884256D9F9
:1021900034480068401C334908604FF4806032497D
:1021A000086000202E49086002202B49087046E094
:1021B0002948007802281AD1254800682A49096868
:1021C000884207D222480068274908600020244935
:1021D000086034E022480068401C21490860084635
:1021E000006805282BD303201B49087027E01A48F4
:1021F0000078032823D1164800681B4909688842E3
:102200000AD2134800681849086000201449086081
:1022100002201149087012E00D4801680D4800685D
:10222000193081420BD90F480068401C0D490860E5
:1022300000200A4908600A4908600749087010BD73
:102240007C84094282000020800000207E00002063
:102250006400002068000020840000208C00002022
:1022600090000020600000208800002010B5FEF7DC
:1022700039F8104A10491148FEF764F80F490988E7
:1022800049430D4A12880C4B1B8802FB0311094A73
:102290001288084B1B8802FB031000F0ABFD0849B5
:1022A0000860084600680749086000200649086081
:1022B00010BD000082000020800000207E00002071
:1022C00064000020680000206000002010B5FFF7C7
:1022D000B7FD0948007880F00100074908700748F9
:1022E000FEF7E8FC20B906480068401C0449086075
:1022F000FEF73CFD10BD000050880942740000202C
:102300009400002010B5002005490860FEF7F4FC99
:10231000FEF712FD03490860FEF728FD10BD00001E
:10232000940000207400002010B5FFF7BFFD404866
:10233000007880F001003E4908700020FEF7D8F8D0
:10234000FEF764F80446F4B93A480078D8B13A4840
:10235000007818B90120384908700EE03648007836
:10236000012803D102203449087006E03248007881
:10237000022802D100203049087001202F4908604E
:102380004002FEF7B5F82B480470FEF763F80446E8
:10239000F4B92B480078D8B12748007818B9022042
:1023A000254908700EE024480078012803D1002058
:1023B0002149087006E020480078022802D1012057
:1023C0001D49087001201D4908604002FEF790F881
:1023D0001B4804701B48007830B101280BD002283C
:1023E00010D003281CD114E0002211464FF4FA70DB
:1023F000FEF7B4FD1AE000224FF4AF710846FEF775
:10240000ADFD13E000224FF4FA711046FEF7A6FD71
:102410000CE04FF4FA7200210846FEF79FFD05E03C
:10242000002211461046FEF799FD00BF00BF10BD07
:1024300054880942A00000207C0000207800002081
:10244000A10000208400002010B5FDF7C1FFFDF7BA
:10245000E3FF0020FEF704F8002211461046FEF7C5
:10246000EBFC10BD10B5FFF757FD1B48007880F05E
:102470000100194908701948006820B10020174967
:10248000086000F045FA1648007860B94FF6E07130
:1024900014480068FEF7CCFB40F2FF711248006858
:1024A000FEF7C6FB14E00E480078012806D140F282
:1024B000FF710E480088FEF7BBFB09E00848007872
:1024C000022805D140F2EF7109480068FEF7B0FB21
:1024D000FEF792FB10BD0000408409427800002006
:1024E0007C00002064000020680000206C000020B8
:1024F0007400002010B5FEF735FB0022114610468F
:10250000FEF7D5F80446FEF71BFB00F001FA0020A9
:102510000149086010BD00007800002010B5FFF7E9
:1025200031FD1948007880F001001749087000213A
:102530000520FEF7AFFB154915480068FEF718FBAC
:1025400001210520FEF7A6FB6FF01F01114800686E
:10255000FEF70EFB00211020FEF79CFB0E480068E2
:102560006421B0FBF1F440F2EF712046FEF700FB6E
:1025700001211020FEF78EFB40F2FF710748006832
:10258000FEF7F6FA10BD00007888094260FDFFFFF3
:102590005C0000206000002074000020700000201B
:1025A00010B54FF0FF330DA200210846FEF7B4F935
:1025B0004FF0FF330BA201210020FEF7ADF94FF0E1
:1025C000FF330AA200210A20FEF7A6F94FF0FF33DD
:1025D00008A201210A20FEF79FF910BD54696D651C
:1025E0003D000000537465703D0000004C69676851
:1025F000743D0000536F756E643D0000184800780C
:1026000000F00C000C2804D11648C088682800D1BE
:102610007047012013490880C12008806820C880C5
:10262000084600894FF6F17188430E4908810C482D
:10263000007840F00C000A490870881C007820F0EF
:102640000C00891C08700748008820F0010005492B
:1026500008800846408B20F00F00488300BFD7E772
:102660000A4C00400010004000BF0449898B01F073
:1026700002010029F9D0014AD081704700100040C2
:1026800000B5034604E093F90000FFF7EDFF5B1C83
:1026900018780028F7D100BD30B504460A2C0AD3BB
:1026A0000A20B4FBF0F52846FFF7F6FF0A20B4FB3A
:1026B000F0F100FB114404F1300040B2FFF7D4FF09
:1026C00030BD000010B504460A48844203D90AA070
:1026D000FFF7D6FF0DE0002009490860204600F012
:1026E000CFF900200749064A126888540846FFF7C8
:1026F000C7FF10BD9F8601002A2A2A2A2A0000004F
:10270000280100202C01002010B504460A4884420C
:1027100003D90AA0FFF7B4FF0DE0002009490860C3
:10272000204600F0EDF900200749064A1268885457
:102730000846FFF7A5FF10BD7F9698002A2A2A2A8F
:102740002A2A2A00280100202C01002030B5044646
:102750000A20B4FBF0F52846FFF79EFF2E20FFF776
:1027600083FF0A20B4FBF0F100FB11452846FFF778
:1027700093FF2520FFF778FF30BD00000C4800686C
:1027800020F002000A49086000BF0948006800F410
:1027900080300028F9D1074805490860302048609A
:1027A0000020054908600249C1F840017047000057
:1027B00000200140903322043C2101402DE9F041EA
:1027C000044614F8017B1DE014F8010B00F022FB15
:1027D00014F8015B05F0800625F0800503E014F88D
:1027E000010B00F03BFB281EA5F10101CDB2F6D193
:1027F00046B114F8016BFF2E01D14FF4FA76304642
:10280000FDF74AFF381EA7F10101CFB2DCD1BDE8C8
:10281000F081000010B5044600203849087038499E
:1028200008703848007820F0800036490870881C0D
:10283000007820F08000891C08703248801F0078E2
:1028400040F080002F49891F08702E482030007802
:1028500020F081002B4920310870881C007820F07E
:102860008100891C087027481A30007840F08100E8
:1028700024491A3108700020234908700120224998
:102880001C3108704FF4FA70FDF706FF00201E4956
:102890001C3108704FF4FA70FDF7FEFE01201A4952
:1028A0001C3108704FF4FA70FDF7F6FE012016494E
:1028B0000870164908804AF6835008800320C880B3
:1028C00010482038007840F060000E492039087028
:1028D000881C007820F06000891C08700B48008874
:1028E00020F00100094908800846408D20F00300CF
:1028F000488514B12046FFF761FF10BD1700002086
:10290000160000202A4C0040408809420020004068
:1029100000B585B024480078A0B94FF416704FF484
:10292000AF6140F2FF7221A3CDE90132CDE903107E
:1029300050011FA31FA2002100904FF66050FEF728
:1029400017F82FE018480078012816D11B48008896
:1029500064381A4909886431002217A3CDE901328D
:10296000CDE9031040F2FF7015A312A200210090E0
:102970004FF66050FDF7FCFF14E00B48007802288A
:1029800010D1002010490CA3CDE90130CDE903108E
:1029900040F2EF700DA307A2002100904FF66050A7
:1029A000FDF7E6FF05B000BD7C0000204176650024
:1029B0004D61670054696D65000000006C000020E7
:1029C000536F756E64000000400D03004C6967682A
:1029D0007400000030B504460A2C0AD30A20B4FB68
:1029E000F0F52846FFF7F6FF0A20B4FBF0F100FBF4
:1029F000114404F1300041B20648074A126881547C
:102A0000054800680B2804D203480068401C0249AE
:102A1000086030BD380100201C00002010B50446BD
:102A200042F20F70844200D90446B4F57A7F03D392
:102A30000020114908601AE0642C06D320200F49B9
:102A4000087001200C49086011E00A2C07D32020EF
:102A50000A490870487002200749086007E02020F2
:102A600006490870487088700320034908602046B2
:102A7000FFF7B0FF10BD00001C000020380100204F
:102A800010B504461B48844200D9044642F2107037
:102A9000844203D300201849086027E0B4F57A7F08
:102AA00006D32020154908700120134908601DE055
:102AB000642C07D3202011490870487002200E4969
:102AC000086013E00A2C08D320200C4908704870D5
:102AD000887003200849086008E020200749087032
:102AE00048708870C870042003490860204600F0D0
:102AF00069F810BD9F860100280100202C010020EC
:102B000010B504462A48844200D904462948844224
:102B100003D300202849086045E02848844206D3B2
:102B20002020274908700120234908603BE042F239
:102B30001070844207D32020214908704870022079
:102B40001D4908602FE0B4F57A7F08D320201C4986
:102B500008704870887003201749086023E0642CCF
:102B600009D320201649087048708870C870042066
:102B70001149086017E00A2C0AD320201049087078
:102B800048708870C870087105200B4908600AE019
:102B900020200B49087048708870C870087148710F
:102BA000062005490860204600F00CF810BD000022
:102BB0007F96980040420F0028010020A086010067
:102BC0002C01002030B504460A2C0AD30A20B4FB9D
:102BD000F0F52846FFF7F6FF0A20B4FBF0F100FB02
:102BE000114404F1300041B20648074A126881548A
:102BF00005480068072804D203480068401C0249C1
:102C0000086030BD2C01002028010020012013495C
:102C1000088040F681700880C820891C0880022046
:102C20000E490A3108807820091F08800C48007876
:102C300040F030000A490870881C007820F030000D
:102C4000891C08700548008820F0010003490880AD
:102C5000002002492A31088070470000002400400B
:102C60004B4C004070B50446002160B2FEF7D0FC2A
:102C700060B2FEF76FFC0646012160B2FEF7C8FCA9
:102C800060B2FEF767FC054605F0EF032A0A012152
:102C900060B2FEF70DFDE8B240F010032A0A0121F0
:102CA00060B2FEF705FD311301208840C6F30B0129
:102CB000484370BD10B504460023C022022160B213
:102CC000FEF7F6FC1023CA22012160B2FEF7F0FCE9
:102CD00060B2FEF73FFC10BDFDF798FAFDF718FC57
:102CE000FEF7D4FD4FF47A710020FEF78FFFFFF757
:102CF000DFF9FFF7BBFAFFF705FBFFF7A5FBFFF7CF
:102D0000F9FBFFF74DFC002016490860FDF780FA3B
:102D100026E0002413E0002505E0FFF769F9012013
:102D2000FDF7BAFC6D1C642DF7DBFFF7CBF9FFF75D
:102D3000FBFAFFF797FB6420FDF7AEFC641C0A2C3E
:102D4000E9DBFFF7C3FAFFF7E9FB06480068401C20
:102D5000044908600448007880F0010002490870C6
:102D6000D7E700005C0000207C88094210B50446CB
:102D7000201200F073F8E0B200F070F810BD00000F
:102D80002DE9F04104460D4616461F462A2000F064
:102D900041F8002000F062F8144909782144C8B2D3
:102DA00000F05CF8002000F059F81049097831442F
:102DB000C8B200F053F82B2000F02CF8002000F0EF
:102DC0004DF80B4909782944C8B200F047F80020B3
:102DD00000F044F8064909783944C8B200F03EF8DA
:102DE0002C2000F017F8BDE8F0810000160000204C
:102DF000170000200146012303EB1110102205E00B
:102E000000FB0013B3FBF0F35808521E002AF7D161
:102E100070470000014600BF0D48808D00F00200A1
:102E20000028F9D000200B4A10700B4A1070084897
:102E3000C18100BF0648808D00F001000028F9D054
:102E40000120054A107002488089C0B27047000016
:102E5000002000405C84094240880942014600BFCE
:102E60000D48808D00F002000028F9D001200B4AA7
:102E7000107000200A4A10700748C18100BF064840
:102E8000808D00F001000028F9D00120044A107064
:102E900001488089C0B27047002000405C8409422C
:102EA000408809424FF04070E1EE100A7047000080
:102EB0000000003E5B4F5B3E3E6B4F6B3E1C3E7C1A
:102EC0003E1C183C7E3C181C577D571C1C5E7F5EC8
:102ED0001C00183C1800FFE7C3E7FF001824180087
:102EE000FFE7DBE7FF30483A060E2629792926401E
:102EF0007F050507407F05253F5A3CE73C5A7F3E4A
:102F00001C1C08081C1C3E7F14227F22145F5F00DB
:102F10005F5F06097F017F006689956A6060606077
:102F20006094A2FFA29408047E040810207E201062
:102F300008082A1C08081C2A08081E101010100C6B
:102F40001E0C1E0C30383E3830060E3E0E060000B9
:102F500000000000005F00000007000700147F145D
:102F60007F14242A7F2A12231308646236495620CC
:102F7000500008070300001C2241000041221C00F1
:102F80002A1C7F1C2A08083E0808008070300008B0
:102F900008080808000060600020100804023E5184
:102FA00049453E00427F4000724949494621414916
:102FB0004D331814127F1027454545393C4A49497D
:102FC0003141211109073649494936464949291EE7
:102FD00000001400000040340000000814224114D6
:102FE00014141414004122140802015909063E4128
:102FF0005D594E7C1211127C7F494949363E414150
:1030000041227F4141413E7F494949417F090909A8
:10301000013E414151737F0808087F00417F410014
:103020002040413F017F081422417F404040407FC3
:10303000021C027F7F0408107F3E4141413E7F0910
:103040000909063E4151215E7F0919294626494951
:10305000493203017F01033F4040403F1F20402091
:103060001F3F4038403F631408146303047804038F
:103070006159494D43007F4141410204081020003D
:103080004141417F040201020440404040400003AE
:1030900007080020545478407F284444383844447A
:1030A0004428384444287F385454541800087E0972
:1030B0000218A4A49C787F0804047800447D400092
:1030C0002040403D007F1028440000417F40007CAC
:1030D000047804787C080404783844444438FC18A4
:1030E00024241818242418FC7C0804040848545488
:1030F000542404043F44243C4040207C1C204020B5
:103100001C3C4030403C44281028444C9090907C1B
:103110004464544C4400083641000000770000002D
:103120004136080002010204023C2623263C1EA16F
:10313000A161123A4040207A3854545559215555CE
:10314000794121545478412155547840205455797F
:10315000400C1E5272123955555559395454545910
:1031600039555454580000457C410002457D4200C9
:1031700001457C40F0292429F0F0282528F07C54D2
:103180005545002054547C547C0A097F49324949F2
:1031900049323248484832324A4848303A4141215F
:1031A0007A3A42402078009DA0A07D3944444439B9
:1031B0003D4040403D3C24FF2424487E4943662B4B
:1031C0002FFC2F2BFF0929F620C0887E09032054ED
:1031D0005479410000447D413048484A32384040EB
:1031E000227A007A0A0A727D0D19317D2629292F4B
:1031F00028262929292630484D4020380808080863
:1032000008080808382F10C8ACBA2F102834FA0064
:10321000007B000008142A142222142A1408AA0091
:103220005500AAAA55AA55AA000000FF00101010C8
:10323000FF00141414FF001010FF00FF1010F01016
:10324000F0141414FC001414F700FF0000FF00FF3A
:103250001414F404FC141417101F10101F101F1462
:1032600014141F00101010F0000000001F101010A8
:10327000101F10101010F010000000FF10101010A0
:103280001010101010FF10000000FF140000FF00CD
:10329000FF00001F10170000FC04F414141710178F
:1032A0001414F404F40000FF00F71414141414149C
:1032B00014F700F7141414171410101F101F14140F
:1032C00014F4141010F010F000001F101F00000084
:1032D0001F14000000FC140000F010F01010FF108C
:1032E000FF141414FF141010101F00000000F01041
:1032F000FFFFFFFFFFF0F0F0F0F0FFFFFF00000026
:103300000000FFFF0F0F0F0F0F38444438447C2A92
:103310002A3E147E02020606027E027E02635549A0
:1033200041633844443C04407E201E2006027E0255
:103330000299A5E7A5991C2A492A1C4C7201724CD6
:10334000304A4D4D303048784830BC625A463D3E98
:10335000494949007E0101017E2A2A2A2A2A444439
:103360005F444440514A444040444A51400000FFB9
:103370000103E080FF000008086B6B08361236245A
:1033800036060F090F060000181800000010100084
:103390003040FF0101001F01011E00191D1712001E
:1033A0003C3C3C3C00000000000F0180961180FF77
:1033B000B103012C2DB203012C2DB306012C2D01DC
:1033C0002C2DB40107C003A20284C101C5C2020AA8
:1033D00000C3028A2AC4028AEEC5010E200036010B
:1033E000C83A0105022A04000200812B04000100F2
:1033F00080022A040000007F2B040000007F04E00C
:1034000010021C07123732292D29252B3900010300
:1034100010E110031D07062E2C292D2E2E373F00FC
:1034200000021013800A298064000000010A0507C9
:103430000F0C08020200000006000000030000005C
:103440000000000001000000070000000400000070
:103450000500000003000000040000000000000060
:10346000020000000600000007000000010000004C
:103470000500000094340000000000203801000026
:1034800080010000A834000038010020F8A90000E5
:10349000BC010000E8C0C62D00C0C62D33E0FF040B
:0834A0006F80008002AF040000
:040000050000022DC8
:00000001FF
